{
  "contractName": "GasFaucet",
  "abi": [
    {
      "constant": true,
      "inputs": [],
      "name": "priceInWeiPerSatoshi",
      "outputs": [
        {
          "name": "",
          "type": "uint256"
        }
      ],
      "payable": false,
      "stateMutability": "view",
      "type": "function"
    },
    {
      "constant": false,
      "inputs": [],
      "name": "acceptOwnership",
      "outputs": [],
      "payable": false,
      "stateMutability": "nonpayable",
      "type": "function"
    },
    {
      "constant": true,
      "inputs": [],
      "name": "owner",
      "outputs": [
        {
          "name": "",
          "type": "address"
        }
      ],
      "payable": false,
      "stateMutability": "view",
      "type": "function"
    },
    {
      "constant": true,
      "inputs": [],
      "name": "faucetTokenAddress",
      "outputs": [
        {
          "name": "",
          "type": "address"
        }
      ],
      "payable": false,
      "stateMutability": "view",
      "type": "function"
    },
    {
      "constant": true,
      "inputs": [],
      "name": "newOwner",
      "outputs": [
        {
          "name": "",
          "type": "address"
        }
      ],
      "payable": false,
      "stateMutability": "view",
      "type": "function"
    },
    {
      "constant": false,
      "inputs": [
        {
          "name": "_newOwner",
          "type": "address"
        }
      ],
      "name": "transferOwnership",
      "outputs": [],
      "payable": false,
      "stateMutability": "nonpayable",
      "type": "function"
    },
    {
      "inputs": [],
      "payable": false,
      "stateMutability": "nonpayable",
      "type": "constructor"
    },
    {
      "payable": true,
      "stateMutability": "payable",
      "type": "fallback"
    },
    {
      "anonymous": false,
      "inputs": [
        {
          "indexed": true,
          "name": "from",
          "type": "address"
        },
        {
          "indexed": false,
          "name": "sendAmount",
          "type": "uint256"
        }
      ],
      "name": "Dispense",
      "type": "event"
    },
    {
      "anonymous": false,
      "inputs": [
        {
          "indexed": true,
          "name": "_from",
          "type": "address"
        },
        {
          "indexed": true,
          "name": "_to",
          "type": "address"
        }
      ],
      "name": "OwnershipTransferred",
      "type": "event"
    },
    {
      "constant": false,
      "inputs": [
        {
          "name": "destination",
          "type": "address"
        }
      ],
      "name": "dispense",
      "outputs": [],
      "payable": false,
      "stateMutability": "nonpayable",
      "type": "function"
    },
    {
      "constant": true,
      "inputs": [
        {
          "name": "gasprice",
          "type": "uint256"
        }
      ],
      "name": "calculateDispensedTokensForGasPrice",
      "outputs": [
        {
          "name": "",
          "type": "uint256"
        }
      ],
      "payable": false,
      "stateMutability": "view",
      "type": "function"
    },
    {
      "constant": true,
      "inputs": [],
      "name": "tokenBalance",
      "outputs": [
        {
          "name": "",
          "type": "uint256"
        }
      ],
      "payable": false,
      "stateMutability": "view",
      "type": "function"
    },
    {
      "constant": true,
      "inputs": [],
      "name": "getWeiPerSatoshi",
      "outputs": [
        {
          "name": "",
          "type": "uint256"
        }
      ],
      "payable": false,
      "stateMutability": "view",
      "type": "function"
    },
    {
      "constant": false,
      "inputs": [
        {
          "name": "price",
          "type": "uint256"
        }
      ],
      "name": "setWeiPerSatoshi",
      "outputs": [],
      "payable": false,
      "stateMutability": "nonpayable",
      "type": "function"
    },
    {
      "constant": false,
      "inputs": [
        {
          "name": "amount",
          "type": "uint256"
        }
      ],
      "name": "withdrawEth",
      "outputs": [],
      "payable": false,
      "stateMutability": "nonpayable",
      "type": "function"
    },
    {
      "constant": false,
      "inputs": [
        {
          "name": "tokenAddress",
          "type": "address"
        },
        {
          "name": "tokens",
          "type": "uint256"
        }
      ],
      "name": "transferAnyERC20Token",
      "outputs": [],
      "payable": false,
      "stateMutability": "nonpayable",
      "type": "function"
    }
  ],
  "bytecode": "0x608060405234801561001057600080fd5b50336000806101000a81548173ffffffffffffffffffffffffffffffffffffffff021916908373ffffffffffffffffffffffffffffffffffffffff160217905550739d2cc383e677292ed87f63586086cff62a009010600260006101000a81548173ffffffffffffffffffffffffffffffffffffffff021916908373ffffffffffffffffffffffffffffffffffffffff1602179055506000600381905550610c30806100bd6000396000f3006080604052600436106100c5576000357c0100000000000000000000000000000000000000000000000000000000900463ffffffff16806302987db8146100ca57806314b933e1146100f55780635f7462331461012057806379ba5097146101635780638da5cb5b1461017a5780639d499363146101d15780639e1a4d1914610228578063c311d04914610253578063d4ee1d9014610280578063dc39d06d146102d7578063e8c2835814610324578063ecbdee9b14610365578063f2fde38b14610392575b600080fd5b3480156100d657600080fd5b506100df6103d5565b6040518082815260200191505060405180910390f35b34801561010157600080fd5b5061010a6103db565b6040518082815260200191505060405180910390f35b34801561012c57600080fd5b50610161600480360381019080803573ffffffffffffffffffffffffffffffffffffffff1690602001909291905050506103e5565b005b34801561016f57600080fd5b5061017861055a565b005b34801561018657600080fd5b5061018f6106f9565b604051808273ffffffffffffffffffffffffffffffffffffffff1673ffffffffffffffffffffffffffffffffffffffff16815260200191505060405180910390f35b3480156101dd57600080fd5b506101e661071e565b604051808273ffffffffffffffffffffffffffffffffffffffff1673ffffffffffffffffffffffffffffffffffffffff16815260200191505060405180910390f35b34801561023457600080fd5b5061023d610744565b6040518082815260200191505060405180910390f35b34801561025f57600080fd5b5061027e60048036038101908080359060200190929190505050610843565b005b34801561028c57600080fd5b5061029561092e565b604051808273ffffffffffffffffffffffffffffffffffffffff1673ffffffffffffffffffffffffffffffffffffffff16815260200191505060405180910390f35b3480156102e357600080fd5b50610322600480360381019080803573ffffffffffffffffffffffffffffffffffffffff16906020019092919080359060200190929190505050610954565b005b34801561033057600080fd5b5061034f60048036038101908080359060200190929190505050610ab3565b6040518082815260200191505060405180910390f35b34801561037157600080fd5b5061039060048036038101908080359060200190929190505050610ae5565b005b34801561039e57600080fd5b506103d3600480360381019080803573ffffffffffffffffffffffffffffffffffffffff169060200190929190505050610b4a565b005b60035481565b6000600354905090565b60006103f03a610ab3565b9050806103fb610744565b11151561040757600080fd5b600260009054906101000a900473ffffffffffffffffffffffffffffffffffffffff1673ffffffffffffffffffffffffffffffffffffffff1663a9059cbb83836040518363ffffffff167c0100000000000000000000000000000000000000000000000000000000028152600401808373ffffffffffffffffffffffffffffffffffffffff1673ffffffffffffffffffffffffffffffffffffffff16815260200182815260200192505050602060405180830381600087803b1580156104cc57600080fd5b505af11580156104e0573d6000803e3d6000fd5b505050506040513d60208110156104f657600080fd5b8101908080519060200190929190505050508173ffffffffffffffffffffffffffffffffffffffff167feb9df064f68e905565a2656b40e16dd2df0c9c21d72fda0d3a97de56f826f3d8826040518082815260200191505060405180910390a25050565b600160009054906101000a900473ffffffffffffffffffffffffffffffffffffffff1673ffffffffffffffffffffffffffffffffffffffff163373ffffffffffffffffffffffffffffffffffffffff161415156105b657600080fd5b600160009054906101000a900473ffffffffffffffffffffffffffffffffffffffff1673ffffffffffffffffffffffffffffffffffffffff166000809054906101000a900473ffffffffffffffffffffffffffffffffffffffff1673ffffffffffffffffffffffffffffffffffffffff167f8be0079c531659141344cd1fd0a4f28419497f9722a3daafe3b4186f6b6457e060405160405180910390a3600160009054906101000a900473ffffffffffffffffffffffffffffffffffffffff166000806101000a81548173ffffffffffffffffffffffffffffffffffffffff021916908373ffffffffffffffffffffffffffffffffffffffff1602179055506000600160006101000a81548173ffffffffffffffffffffffffffffffffffffffff021916908373ffffffffffffffffffffffffffffffffffffffff160217905550565b6000809054906101000a900473ffffffffffffffffffffffffffffffffffffffff1681565b600260009054906101000a900473ffffffffffffffffffffffffffffffffffffffff1681565b6000600260009054906101000a900473ffffffffffffffffffffffffffffffffffffffff1673ffffffffffffffffffffffffffffffffffffffff166370a08231306040518263ffffffff167c0100000000000000000000000000000000000000000000000000000000028152600401808273ffffffffffffffffffffffffffffffffffffffff1673ffffffffffffffffffffffffffffffffffffffff168152602001915050602060405180830381600087803b15801561080357600080fd5b505af1158015610817573d6000803e3d6000fd5b505050506040513d602081101561082d57600080fd5b8101908080519060200190929190505050905090565b6000809054906101000a900473ffffffffffffffffffffffffffffffffffffffff1673ffffffffffffffffffffffffffffffffffffffff163373ffffffffffffffffffffffffffffffffffffffff1614151561089e57600080fd5b3073ffffffffffffffffffffffffffffffffffffffff1631811015156108c357600080fd5b6000809054906101000a900473ffffffffffffffffffffffffffffffffffffffff1673ffffffffffffffffffffffffffffffffffffffff166108fc829081150290604051600060405180830381858888f1935050505015801561092a573d6000803e3d6000fd5b5050565b600160009054906101000a900473ffffffffffffffffffffffffffffffffffffffff1681565b6000809054906101000a900473ffffffffffffffffffffffffffffffffffffffff1673ffffffffffffffffffffffffffffffffffffffff163373ffffffffffffffffffffffffffffffffffffffff161415156109af57600080fd5b8173ffffffffffffffffffffffffffffffffffffffff1663a9059cbb6000809054906101000a900473ffffffffffffffffffffffffffffffffffffffff16836040518363ffffffff167c0100000000000000000000000000000000000000000000000000000000028152600401808373ffffffffffffffffffffffffffffffffffffffff1673ffffffffffffffffffffffffffffffffffffffff16815260200182815260200192505050602060405180830381600087803b158015610a7357600080fd5b505af1158015610a87573d6000803e3d6000fd5b505050506040513d6020811015610a9d57600080fd5b8101908080519060200190929190505050505050565b6000806003541415610ac85760009050610ae0565b610add60035483610be990919063ffffffff16565b90505b919050565b6000809054906101000a900473ffffffffffffffffffffffffffffffffffffffff1673ffffffffffffffffffffffffffffffffffffffff163373ffffffffffffffffffffffffffffffffffffffff16141515610b4057600080fd5b8060038190555050565b6000809054906101000a900473ffffffffffffffffffffffffffffffffffffffff1673ffffffffffffffffffffffffffffffffffffffff163373ffffffffffffffffffffffffffffffffffffffff16141515610ba557600080fd5b80600160006101000a81548173ffffffffffffffffffffffffffffffffffffffff021916908373ffffffffffffffffffffffffffffffffffffffff16021790555050565b6000808284811515610bf757fe5b04905080915050929150505600a165627a7a72305820fda20ec23c5c4114b609aabff219bee7d0fd1f2c344db982fb42e101d623804a0029",
  "source": "pragma solidity ^0.4.17;\r\n/*\r\n\r\n0xBitcoin Token Faucet in a Smart Contract (ver 0.0.0)\r\n\r\nAny tokens sent to this contract may be withdrawn by other users through use\r\nof the dispense() function. The dispensed amount is dependant on the\r\ntransaction's gas price. This means a transaction sent at 4 gwei will dispense\r\ntwice as many tokens as a transaction sent at 2 gwei.\r\n\r\nThe dispensing \"rate\" is changable by the contract owner and allows the rate to\r\nbe changed over time to follow the token's price. The intention of this ratio is\r\nto ensure that the value of ether spent as gas is roughly equal to the value of\r\nthe tokens received.\r\n\r\nTypically calls to dispense() cost about 41879 gas total.\r\n\r\n*/\r\n\r\npragma solidity ^0.4.18;\r\n\r\nimport \"./SafeMath.sol\";\r\nimport \"./ERC20Interface.sol\";\r\nimport \"./Owned.sol\";\r\n\r\n\r\n\r\ncontract GasFaucet is Owned {\r\n    using SafeMath for uint256;\r\n\r\n    address public faucetTokenAddress;\r\n    uint256 public priceInWeiPerSatoshi;\r\n\r\n    event Dispense(address indexed from, uint256 sendAmount);\r\n\r\n    constructor() public {\r\n        // 0xBitcoin Token Address (Ropsten)\r\n        faucetTokenAddress = 0x9D2Cc383E677292ed87f63586086CfF62a009010;\r\n        // 0xBitcoin Token Address (Mainnet)\r\n        // faucetTokenAddress = 0xB6eD7644C69416d67B522e20bC294A9a9B405B31;\r\n\r\n        // Set rate to 0 satoshis / wei. Calls to 'dispense' will send 0 tokens\r\n        // until the rate is manually changed.\r\n        priceInWeiPerSatoshi = 0;\r\n    }\r\n\r\n    // ------------------------------------------------------------------------\r\n    // Dispense some free tokens. The more gas you spend, the more tokens you\r\n    // recieve. \r\n    // \r\n    // Tokens recieved (in satoshi) = gasprice / priceInWeiPerSatoshi\r\n    // ------------------------------------------------------------------------\r\n    function dispense(address destination) public {\r\n        uint256 sendAmount = calculateDispensedTokensForGasPrice(tx.gasprice);\r\n        require(tokenBalance() > sendAmount);\r\n\r\n        ERC20Interface(faucetTokenAddress).transfer(destination, sendAmount);\r\n\r\n        emit Dispense(destination, sendAmount);\r\n    }\r\n    \r\n    // ------------------------------------------------------------------------\r\n    // Retrieve the current dispensing rate in satoshis per gwei\r\n    // ------------------------------------------------------------------------\r\n    function calculateDispensedTokensForGasPrice(uint256 gasprice) public view returns (uint256) {\r\n        if(priceInWeiPerSatoshi == 0){ \r\n            return 0; \r\n        }\r\n        return gasprice.div(priceInWeiPerSatoshi);\r\n    }\r\n    \r\n    // ------------------------------------------------------------------------\r\n    // Retrieve Faucet's balance \r\n    // ------------------------------------------------------------------------\r\n    function tokenBalance() public view returns (uint)  {\r\n        return ERC20Interface(faucetTokenAddress).balanceOf(this);\r\n    }\r\n    \r\n    // ------------------------------------------------------------------------\r\n    // Retrieve the current dispensing rate in satoshis per gwei\r\n    // ------------------------------------------------------------------------\r\n    function getWeiPerSatoshi() public view returns (uint256) {\r\n        return priceInWeiPerSatoshi;\r\n    }\r\n    \r\n    // ------------------------------------------------------------------------\r\n    // Set the current dispensing rate in satoshis per gwei\r\n    // ------------------------------------------------------------------------\r\n    function setWeiPerSatoshi(uint256 price) public onlyOwner {\r\n        priceInWeiPerSatoshi = price;\r\n    }\r\n\r\n    // ------------------------------------------------------------------------\r\n    // Don't accept ETH\r\n    // ------------------------------------------------------------------------\r\n    function () public payable {\r\n        revert();\r\n    }\r\n\r\n    // ------------------------------------------------------------------------\r\n    // Owner can withdraw any accidentally sent eth\r\n    // ------------------------------------------------------------------------\r\n    function withdrawEth(uint256 amount) public onlyOwner {\r\n        require(amount < address(this).balance);\r\n        owner.transfer(amount);\r\n    }\r\n\r\n    // ------------------------------------------------------------------------\r\n    // Owner can transfer out any ERC20 tokens\r\n    // ------------------------------------------------------------------------\r\n    function transferAnyERC20Token(address tokenAddress, uint256 tokens) public onlyOwner {\r\n        \r\n        // Note: Owner has full control of priceInWeiPerSatoshi, so preventing\r\n        // withdrawal of the faucetTokenAddress token serves no purpose. It\r\n        // would merely be misleading.\r\n        //\r\n        // if(tokenAddress == faucetTokenAddress){ \r\n        //     revert(); \r\n        // }\r\n\r\n        ERC20Interface(tokenAddress).transfer(owner, tokens);\r\n    }\r\n}",
  "sourcePath": "C:\\Users\\Developer\\repos\\gas-faucet\\contracts\\GasFaucet.sol",
  "compiler": {
    "name": "solc",
    "version": "0.4.24+commit.e67f0147.Emscripten.clang"
  },
  "schemaVersion": "2.0.0",
  "updatedAt": "2018-06-24T00:47:33.290Z"
}